S012000061746D656761333238702E7372656396
S11300000C9434000C948B000C9451000C9451000B
S11300100C9451000C9451000C9451000C94510018
S11300200C9451000C9451000C9451000C94510008
S11300300C9451000C9451000C94A0000C945100A9
S11300400C9451000C9451000C9451000C945100E8
S11300500C9451000C9451000C9451000C945100D8
S11300600C9451000C94510011241FBECFEFD8E022
S1130070DEBFCDBF11E0A0E0B1E0EAE1F3E002C0F1
S113008005900D92A631B107D9F721E0A6E1B1E0C0
S113009001C01D92A732B207E1F70E94BE000C9482
S11300A08B010C94000060E074E284EF90E008950A
S11300B0682F80E00E945A0180E090E00895CF9379
S11300C0DF93CDB7DEB728970FB6F894DEBF0FBE27
S11300D0CDBF88E0EEE0F1E0DE01119601900D92D3
S11300E08A95E1F7BE016F5F7F4F80E00E94E700D1
S11300F0009741F080E091E09093240180932301E4
S113010081E090E028960FB6F894DEBF0FBECDBF15
S1130110DF91CF9108951F920F920FB60F92112481
S11301208F939F9382E090E09093200180931F012E
S113013029989F918F910F900FBE0F901F90189543
S11301401F920F920FB60F9211248F939F93809159
S113015016018F5F8D3719F08093160108C0109235
S1130160160181E090E09093200180931F019F91FC
S11301708F910F900FBE0F901F9018950E945F00F3
S11301808FB780688FBFE1E8F0E08081887F81606D
S11301908083A0E8B0E08C918C7F8C938081877EF3
S11301A0808380818F7B81608083EFE6F0E08081B3
S11301B08062808385B5887F85BD579A5F9A85E381
S11301C08A95F1F700005F9880E090E008950F931E
S11301D01F93CF93DF93EB0198E0FB01A7E1B1E01C
S11301E001900D929A95E1F781115AC0E0ECF0E08C
S11301F080818D7F808380818E7F8083E1ECF0E03D
S1130200808180618083808188608083A2ECB0E0FB
S11302108C919C8190FB87F98C932C919F8130E287
S1130220939FC0011124922F9F79892B8C938C91D9
S11302308E7F8C938C919D81990F990F990F877F55
S1130240892B8C9380819E81987F8B7F892B8083DF
S11302508C81811128C00E945300088119812A8150
S11302603B81000F111F221F331F000F111F221F7C
S1130270331FA9019801220F331F441F551F220F5A
S1130280331F441F551F0E946901215031092093D7
S1130290C400832F8F708093C50081E090E005C077
S11302A08FEF9FEF02C080E090E0DF91CF911F912C
S11302B00F91089581110CC0E0ECF0E0808185FF7E
S11302C0FDCF6093C600E0ECF0E0808186FFFDCFB7
S11302D00895A1E21A2EAA1BBB1BFD010DC0AA1F83
S11302E0BB1FEE1FFF1FA217B307E407F50720F09B
S11302F0A21BB30BE40BF50B661F771F881F991F16
S11303001A9469F760957095809590959B01AC015E
S10D0310BD01CF010895F894FFCF5A
S113031A00000002000000005800000000008025D0
S109032A000000000300C6
S9030000FC
